:1000000078C00620D5990000897C00004DAA010027
:10001000E3990000E3990000E3990000E3990000F0
:10002000000000000000000000000000E399000054
:10003000E3990000000000008FA901005988020028
:100040003D6000006D5F0000F9600000436100004A
:100050000DA60000E1390100A1B2000091B100003D
:10006000D9DE0000C34F01000F5001008D50010088
:10007000F1500100C34F01000F5001008D500100ED
:10008000F1500100673601009B360100CF360100B8
:100090000337010000000000000000000000000025
:1000A0000000000000000000000000000000000050
:1000B0000000000000000000000000000000000040
:1000C0000000000000000000000000000000000030
:1000D0000000000000000000000000000000000020
:10040000FFFFFFFFFFFDFFFFFCFFFFFFFFFFFFFF01
:10041000FCFFFFFFFFFFFFFFFCFFFF00FFFFFF00F0
:10042000FCFF0F20FFFF0F20FCFF7F40FFFF7F40FE
:10043000FCFF0D40FFFF0D40FFFFFFFFFFFFFFFF31
:10044000FFFFFFFFFFFFFFFFFFFFFFFFFFFFFFFFBC
:10045000FFFFFFFFFFFFFFFFFFFFFFFFFFFFFFFFAC
:10046000FFFFFFFFFFFFFFFFFFFFFFFFFFFFFFFF9C
:10047000FFFFFFFFFFFFFFFFFFFFFFFFFFFFFFFF8C
:10048000FFFFFFFFFFFFFFFFFFFFFFFFFFFFFFFF7C
:10049000FFFFFFFFFFFFFFFFFFFFFFFFFFFFFFFF6C
:1004A000FFFFFFFFFFFFFFFFFFFFFFFFFFFFFFFF5C
:1004B000FFFFFFFFFFFFFFFFFFFFFFFFFFFFFFFF4C
:1004C000FFFFFFFFFFFFFFFFFFFFFFFFFFFFFFFF3C
:1004D000FFFFFFFFFFFFFFFFFFFFFFFFFFFFFFFF2C
:1004E000FFFFFFFFFFFFFFFFFFFFFFFFFFFFFFFF1C
:1004F000FFFFFFFFFFFFFFFFFFFFFFFFFFFFFFFF0C
:1005000010B5054C237833B9044B13B10448AFF34D
:1005100000800123237010BD8011FE1F0000000029
:100520002C620B0008B5034B1BB103490348AFF322
:10053000008008BD000000008411FE1F2C620B002B
:1005400080B500AF0A4817F089FA01214FF4807096
:100550002BF098F84FF4FA7019F034FE00214FF4A4
:1005600080702BF08FF84FF4FA7019F02BFEECE747
:100570007CE8070080B584B002AF602017F038FB3C
:10058000786040F205233B603B680E4A0E4978686C
:1005900026F0EAFF0C490D482EF06CFE0023009374
:1005A00000230B4A0B4909481AF048FE0346002B6A
:1005B00002D1094817F052FA002318460837BD4601
:1005C00080BD00BF94E807009CE80700A4E807008E
:1005D000A8E80700ACE80700B0E8070080B582B0E3
:1005E00000AF786039607B689B693A6812B2114647
:1005F000184666F004FC00BF0837BD4680BD80B5D4
:1006000082B000AF786039607B689B693A6812B24B
:100610001146184666F018FC00BF0837BD4680BD7D
:1006200080B582B000AF786039607B689B693A68BA
:1006300012B21146184666F081FE00BF0837BD466B
:1006400080BD80B582B000AF786039607B689B69FF
:100650003A6812B21146184666F095FE00BF083798
:10066000BD4680BD80B582B000AF78607B689B6975
:10067000184667F02FFB034618460837BD4680BD75
:1006800080B500AF002002F0FDFA00BF80BD80B44D
:1006900083B000AF786039603A687B68DA6200BF87
:1006A0000C37BD465DF8047B704780B483B000AF63
:1006B000786039603B685A427B681A6300BF0C3728
:1006C000BD465DF8047B704780B485B000AFF8602C
:1006D000B9607A60FB68BA681A62FB68BA685A62E5
:1006E000FB687A689A6200BF1437BD465DF8047BE8
:1006F000704780B483B000AF786039607B687A68F7
:100700001A607B683A685A6000BF0C37BD465DF8D6
:10071000047B704780B483B000AF786039607B6839
:100720003A68DA6100BF0C37BD465DF8047B70475C
:1007300080B483B000AF786039607B683A685A61F2
:1007400000BF0C37BD465DF8047B704780B483B0B2
:1007500000AF786039607B683A689A6300BF0C37F5
:10076000BD465DF8047B704780B483B000AF78600D
:1007700039607B683A685A6300BF0C37BD465DF844
:10078000047B704780B483B000AF78600B467B80F9
:100790007B687A88A3F8402000BF0C37BD465DF81F
:1007A000047B704780B483B000AF786039607B68A9
:1007B0003A68DA6300BF0C37BD465DF8047B7047CA
:1007C00080B483B000AF78600B46FB707A6892F813
:1007D0004230F97861F3000382F8423000BF0C37F1
:1007E000BD465DF8047B704780B483B000AF78608D
:1007F00039607B683A689A6100BF0C37BD465DF886
:10080000047B704790B482B000AF0446084611469E
:100810002246FA710246BA710A467A717A79D2088A
:10082000D2B202F01F02D0B2BA799208D2B202F06C
:100830003F02D1B2FA79D208D2B202F01F02D2B28C
:1008400060F3040361F34A1362F3CF2318460837B9
:10085000BD4690BC704780B485B000AF78607B68BF
:100860001B0A9BB223F4FF6323F007039AB27B6851
:100870005B099BB203F4FC639BB213439AB27B689F
:10088000DB089BB203F01F039BB213439BB2BB81F7
:10089000BB8918461437BD465DF8047B704780B5A8
:1008A00000AF002200210020FFF7ACFF03461846EE
:1008B00080BD80B582B000AF78600023002209219E
:1008C000786866F069FE00BF0837BD4680BD80B518
:1008D00000AF50F02FFA0346184653F047FE034688
:1008E000184680BD80B584B000AFF860B96013468B
:1008F000FB71FB791A46B968F8686EF0F7FC00BF27
:100900001037BD4680BD80B584B000AFF860B960D7
:100910001346FB71FB791A46B968F8686EF020FD42
:1009200000BF1037BD4680BD80B584B000AFF86011
:10093000B9607A607A68B968F8686EF04EFD00BFF9
:100940001037BD4680BD80B582B000AF78600B46E1
:10095000FB70FB78194678686EF086FD00BF08379B
:10096000BD4680BD80B582B000AF786078686EF01B
:10097000A1FD034618460837BD4680BD80B584B04A
:1009800000AF786078686EF0CCFD0346FB73FB7BAC
:10099000012B01D1012305E0FB7B022B01D10223B6
:1009A00000E0002318461037BD4680BD80B5C6B0B4
:1009B00000AF07F58C73A3F58A73186007F58C7385
:1009C000A3F58C73196007F1D40318462EF054FE7A
:1009D00007F1D4034FF416711846FFF758FE07F5D8
:1009E0008C73A3F58A7307F1D40219681046FFF7D8
:1009F000FBFE07F1D403A6491846FFF77AFE07F17C
:100A0000D40300226FF0C7011846FFF75DFE07F11F
:100A1000D403A0491846FFF77DFE07F58C73A3F5B4
:100A20008C731A6807F1D40311461846FFF73DFE90
:100A300007F1D40300211846FFF788FE07F1D4031D
:100A400000211846FFF790FE07F1D4030021184655
:100A5000FFF798FE07F1D40300211846FFF7A2FE26
:100A600007F1D40300211846FFF7AAFE07F1D403CB
:100A700018462EF027FE07F1900318462EF0FCFDD5
:100A800007F190034FF416711846FFF700FE07F5C3
:100A90008C73A3F58A7307F1900219681046FFF76B
:100AA000A3FE07F190037C491846FFF722FE07F1E9
:100AB000900300224FF496711846FFF705FE07F1E8
:100AC000900374491846FFF725FE07F58C73A3F5CC
:100AD0008C731A6807F1900311461846FFF7E5FD7D
:100AE00007F1900300211846FFF730FE07F190034D
:100AF00000211846FFF738FE07F190030021184641
:100B0000FFF740FE07F1900300211846FFF74AFE69
:100B100007F1900300211846FFF752FE07F19003FA
:100B200018462EF0CFFD07F14C0318462EF0A4FD19
:100B300007F14C034FF416711846FFF7A8FD07F5AF
:100B40008C73A3F58A7307F14C0219681046FFF7FE
:100B50004BFE07F14C0351491846FFF7CAFD07F158
:100B60004C034FF4B97200211846FFF7ADFD07F1B1
:100B70004C034B491846FFF7CDFD07F58C73A3F5E1
:100B80008C731A6807F14C0311461846FFF78DFD68
:100B900007F14C0300211846FFF7D8FD07F14C037D
:100BA00000211846FFF7E0FD07F14C03002118462D
:100BB000FFF7E8FD07F14C0300211846FFF7F2FDAF
:100BC00007F14C0300211846FFF7FAFD07F14C032B
:100BD00018462EF077FD07F1080318462EF04CFD5D
:100BE00007F108034FF416711846FFF750FD07F59B
:100BF0008C73A3F58A7307F1080219681046FFF792
:100C0000F3FD07F1080327491846FFF772FD07F1C6
:100C10000803C82200211846FFF756FD07F1080314
:100C20001F491846FFF776FD07F58C73A3F58C7303
:100C30001A6807F1080311461846FFF736FD07F159
:100C4000080300211846FFF781FD07F10803002182
:100C50001846FFF789FD07F1080300211846FFF742
:100C600091FD07F1080300211846FFF79BFD07F1EE
:100C7000080300211846FFF7A3FD07F108031846F3
:100C80002EF020FD00BF07F58C77BD4680BD00BF6C
:100C9000FF0500004DF90200DD05000021060000FF
:100CA00001F902004306000080B5C6B000AF07F5A9
:100CB0008C73A3F58A73186007F58C73A3F58C7396
:100CC000196007F1D40318462EF0D6FC07F1D403BF
:100CD0004FF416711846FFF7DAFC07F58C73A3F58D
:100CE0008A7307F1D40219681046FFF77DFD07F1FA
:100CF000D403A6491846FFF7FCFC07F1D4034FF4D0
:100D0000967200211846FFF7DFFC07F1D403A049D3
:100D10001846FFF7FFFC07F58C73A3F58C731A6870
:100D200007F1D40311461846FFF7BFFC07F1D403BF
:100D300000211846FFF70AFD07F1D40300211846E9
:100D4000FFF712FD07F1D40300211846FFF71AFD43
:100D500007F1D40300211846FFF724FD07F1D4035F
:100D600000211846FFF72CFD07F1D40318462EF09A
:100D7000A9FC07F1900318462EF07EFC07F19003C2
:100D80004FF416711846FFF782FC07F58C73A3F534
:100D90008A7307F1900219681046FFF725FD07F1E5
:100DA00090037C491846FFF7A4FC07F190036FF00D
:100DB000C70200211846FFF787FC07F1900374492A
:100DC0001846FFF7A7FC07F58C73A3F58C731A6818
:100DD00007F1900311461846FFF767FC07F19003EF
:100DE00000211846FFF7B2FC07F1900300211846D6
:100DF000FFF7BAFC07F1900300211846FFF7C2FC89
:100E000007F1900300211846FFF7CCFC07F190038F
:100E100000211846FFF7D4FC07F1900318462EF086
:100E200051FC07F14C0318462EF026FC07F14C0349
:100E30004FF416711846FFF72AFC07F58C73A3F5DB
:100E40008A7307F14C0219681046FFF7CDFC07F1D1
:100E50004C0351491846FFF74CFC07F14C030022A4
:100E60004FF4B9711846FFF72FFC07F14C034849BE
:100E70001846FFF74FFC07F58C73A3F58C731A68BF
:100E800007F14C0311461846FFF70FFC07F14C031E
:100E900000211846FFF75AFC07F14C0300211846C1
:100EA000FFF762FC07F14C0300211846FFF76AFCCC
:100EB00007F14C0300211846FFF774FC07F14C03BF
:100EC00000211846FFF77CFC07F14C0318462EF072
:100ED000F9FB07F1080318462EF0CEFB07F10803D3
:100EE0004FF416711846FFF7D2FB07F58C73A3F584
:100EF0008A7307F1080219681046FFF775FC07F1BD
:100F0000080326491846FFF7F4FB07F108030022FF
:100F1000C8211846FFF7D8FB07F108031C491846FB
:100F2000FFF7F8FB07F58C73A3F58C731A6807F1CC
:100F3000080311461846FFF7B8FB07F10803002124
:100F40001846FFF703FC07F1080300211846FFF7D6
:100F50000BFC07F1080300211846FFF713FC07F10B
:100F6000080300211846FFF71DFC07F108030021C4
:100F70001846FFF725FC07F1080318462EF0A2FBE0
:100F800000BF07F58C77BD4680BD00BFDD050000C2
:100F90004DF90200FF050000210600004306000095
:100FA00080B594B000AF7860396007F10C03184643
:100FB0002EF062FB07F10C034FF4FA711846FFF7AD
:100FC00066FB07F10C0379681846FFF70DFC07F183
:100FD0000C0322491846FFF78CFB07F10C03002293
:100FE000F0211846FFF770FB07F10C031C49184667
:100FF000FFF790FB3A6807F10C0311461846FFF71C
:1010000054FB07F10C0300211846FFF79FFB07F183
:101010000C0300211846FFF7A7FB07F10C03002182
:101020001846FFF7AFFB07F10C0300211846FFF746
:10103000B9FB07F10C0300211846FFF7C1FB07F1CC
:101040000C0308491846FFF773FB07F10C03184619
:101050002EF038FB00BF5037BD4680BDFF050000B5
:101060004DF902006506000080B594B000AF7860CD
:10107000396007F10C0318462EF0FEFA07F10C0355
:1010800040F28A211846FFF702FB07F10C0379684A
:101090001846FFF7A9FB07F10C0322491846FFF792
:1010A00028FB07F10C030022F0211846FFF70CFB88
:1010B00007F10C031C491846FFF72CFB3A6807F1AF
:1010C0000C0311461846FFF7F0FA07F10C03002154
:1010D0001846FFF73BFB07F10C0300211846FFF70A
:1010E00043FB07F10C0300211846FFF74BFB07F108
:1010F0000C0300211846FFF755FB07F10C030021F4
:101100001846FFF75DFB07F10C0308491846FFF787
:101110000FFB07F10C0318462EF0D4FA00BF50372E
:10112000BD4680BDFF0500004DF9020065060000C8
:1011300080B594B000AF7860396007F10C031846B1
:101140002EF09AFA07F10C034FF448711846FFF796
:101150009EFA07F10C0379681846FFF745FB07F183
:101160000C0322491846FFF7C4FA07F10C030022CA
:10117000F0211846FFF7A8FA07F10C031C4918469E
:10118000FFF7C8FA3A6807F10C0311461846FFF753
:101190008CFA07F10C0300211846FFF7D7FA07F184
:1011A0000C0300211846FFF7DFFA07F10C030021BA
:1011B0001846FFF7E7FA07F10C0300211846FFF77E
:1011C000F1FA07F10C0300211846FFF7F9FA07F1CD
:1011D0000C0308491846FFF7ABFA07F10C03184651
:1011E0002EF070FA00BF5037BD4680BDFF050000ED
:1011F0004DF902006506000080B584B000AF78604C
:1012000039607B68FB60386878F07AF903467B8147
:101210003B68002B2AD07B89002B27D0FB685B6AB8
:10122000002B07D0FB685B6A184639F0B1FCFB68FD
:1012300000225A627B890133184639F095FC024638
:10124000FB685A62FB685B6A002B04D153220A498F
:101250000A4816F05FFDFB685B6A002B08D0FB684C
:101260005B6A3968184678F0D9F802E000BF00E000
:1012700000BF1037BD4680BDF05E0900E05E09008A
:1012800080B5A8B000AF7860786850F0B7FD03462D
:1012900087F89F30786850F099FDC7F89800786813
:1012A00050F0C7FDC7F8940097F89F301C2B5FD112
:1012B000D7F898004EF0EDFAC7F89000D7F89800EC
:1012C0004EF0D9FAC7F88C00D7F8900078F018F9EA
:1012D0000346A7F88A30D7F88C0078F011F9034656
:1012E000A7F88830B7F88A20B7F888301344802BE5
:1012F0003EDC07F10803D7F89010184678F08EF816
:1013000007F10803D7F88C10184677F089FE07F12B
:1013100008031949184678F06DFB0346002B26D0C8
:1013200007F108031946D7F89400FFF765FF134B40
:101330001B6800220821184650F0C8FC07F108037A
:101340001A4600210E4828F09DFE0C4B1B681846DB
:1013500057F09BFC0B4B1B684FF47A71184657F003
:101360000DFD094B1B68184600F06CF900E000BF4A
:10137000A037BD4680BD00BFE45E0900A811FE1F76
:101380007C960620A411FE1F9C11FE1F80B586B01E
:1013900002AF7860786850F031FD0346FB737868DF
:1013A00050F014FDB860434B1B68BA689A421DD1D7
:1013B000FB7B082B1AD1404B1B68002B0CBF012371
:1013C0000023DBB21A463C4B1A603B4B1B68002BD8
:1013D00006D13A4B1B6800211846FFF7E7FA05E0F3
:1013E000364B1B6800211846FFF75EFC344B1B6828
:1013F000BA689A422DD1FB7B082B2AD1314B1B684E
:10140000002B0CBF01230023DBB21A462D4B1A60C0
:101410002C4B1B68002B0ED1002201212A4828F0FA
:1014200031FE274B186800230093284B002200212F
:1014300036F04EFC04E000220221234828F022FE70
:101440001F4B186800230093214B0022002136F027
:101450003FFC204B1B68BA689A4210D1FB7B082BDB
:101460000DD1194B1B78032B04D100220121164802
:1014700028F008FE00220421134828F003FE164B32
:101480001B68BA689A4210D1FB7B082B0DD10E4B1A
:101490001B78032B04D1002201210B4828F0F2FD18
:1014A00000220321084828F0EDFD00BF1037BD469B
:1014B00080BD00BFA811FE1FC011FE1FA411FE1F9A
:1014C000B011FE1FC411FE1F7C960620F00E08000E
:1014D00028F70700AC11FE1FB411FE1F80B584B0C1
:1014E00000AF7860786850F071FCF860F868FFF73A
:1014F00039FA03461BB27B8107F10A031A4605211C
:10150000034828F0BFFD00BF1037BD4680BD00BFB7
:101510007C96062080B584B000AF78607968064874
:101520006FF0D6FBF860F8686FF087FCFB68184630
:101530001037BD4680BD00BFC45E090090B583B0C2
:1015400000AF7860FFF7C3F9034600220021184678
:1015500037F04DFCFFF7BBF90446FFF7A0F903464F
:1015600000221946204637F0BAFB4FF488724FF438
:10157000F071786865F0CAFE7868FFF79AF97868C4
:101580004EF052F90346134A1360124B1B68C822EF
:101590004FF4B971184665F0B9FE0E4B1B6818463A
:1015A000FFF787F90B4B1B68002118464EF050F9E6
:1015B000084B1B68084918464EF079F9054B186826
:1015C0007B681C22054950F067FC00BF0C37BD4604
:1015D00090BD00BFA411FE1FEC5E09008112000047
:1015E00080B584B002AF7860786836F05DFB034662
:1015F000114A1360104B1868002300930F4B002210
:10160000002136F065FB0C4B1B683E223E2118463C
:1016100065F07CFE084B186800230022032165F06A
:10162000BBFF054B186800230022054950F034FC2D
:1016300000BF0837BD4680BDA811FE1F083C08004A
:101640008D13000080B584B002AF7860786836F002
:101650002BFB0346574A1360564B18680023009330
:10166000554B0022002136F033FB524B1B682321DF
:10167000184665F063FE4F4B1B682321184665F042
:1016800082FE4C4B1B68DC21184665F0B8FB494BC9
:101690001B686FF04401184665F0D6FB454B1B688C
:1016A0000921184665F068FF786836F0FDFA0346B0
:1016B000424A1360414B186800230093404B0022BC
:1016C000002136F005FB3D4B1B682321184665F0D1
:1016D00035FE3A4B1B682321184665F054FE374B04
:1016E0001B68DC21184665F08AFB344B1B683821E7
:1016F000184665F0A9FB314B1B680921184665F0B7
:101700003BFF786836F0D0FA03462E4A13602D4B23
:101710001868002300932C4B0022002136F0D8FAE1
:10172000284B1B682321184665F008FE254B1B68D3
:101730002321184665F027FE224B1B68DC21184642
:1017400065F05DFB1F4B1B686FF00601184665F0E6
:101750007BFB1C4B1B680921184665F00DFF174BDE
:101760001B6800211846FFF7E3FC164B1B6800219D
:101770001846FFF779FC0F4B1B6800211846FFF74E
:101780000FFC0E4B186800230022104950F084FB18
:101790000C4B1868002300220C4950F07DFB054BD0
:1017A000186800230022094950F076FB00BF083773
:1017B000BD4680BDB411FE1F704A0800AC11FE1F6B
:1017C000B85E0900B011FE1F28F707008D13000056
:1017D00090B583B000AF7860786875F021FA034661
:1017E000604A13605F4B1B6810226FF00F011846B0
:1017F000FFF79AF85B4B1B6801211846FFF7A3F827
:10180000584B1B681421184665F098FD554B1B6812
:10181000C821184665F0B7FD524B1B6807211846D2
:1018200065F0AAFE4F4B1B6800220421184637F0D2
:101830007DFB4C4B1C684C48FFF70DF8034600221B
:101840001946204637F04BFA464B1B680022FF2111
:10185000184637F058FA434B1B68002200211846FF
:1018600037F064FA3F4B1B680022FF21184637F01F
:1018700071FA3C4B1B6800220021184637F0B7FA7A
:10188000384B1B6800220221184637F0D8F9354B37
:101890001B6800220221184637F0E5F9314B1B681E
:1018A00000220021184637F0A2F92E4B1B680022B7
:1018B0000021184637F0AFF92A4B1B684FF400326D
:1018C0000421184637F032FB264B1C686FF07F402E
:1018D000FEF7C1FF03464FF400321946204637F0A9
:1018E000FEF9204B1B684FF400320021184637F0F8
:1018F0000AFA1C4B1B684FF400320021184637F0DF
:1019000015FA184B1B684FF40032FF21184637F0C8
:1019100021FA144B1B684FF400321449184637F073
:101920002DFA104B1C686FF07F40FEF794FF0346C2
:101930004FF440321946204637F0D1F9094B1B6865
:101940004FF440320021184637F0DDF9054B186896
:1019500000231C22064950F09FFA00BF0C37BD46F9
:1019600090BD00BFB811FE1F332A27005050090058
:10197000DD14000090B583B000AF7860786875F032
:101980004FF903464F4A13604E4B1B68002200215B
:101990001846FEF7A7FF4B4B1B681846FEF7EEFFF5
:1019A0000346022B06D1474B1B6800220021184634
:1019B000FEF7A9FF434B1B684FF49B71184665F077
:1019C000BDFC404B1B680A21184665F0DCFC3D4B12
:1019D0001B680521184665F0CFFD3A4B1C686FF077
:1019E0007F40FEF738FF034600221946204637F0B5
:1019F00076F9344B1B6800220021184637F083F932
:101A0000304B1B6800220021184637F08FF92D4B10
:101A10001B680022FF21184637F09CF9294B1B68F0
:101A200000222949184637F0A9F9264B1B680022E5
:101A30003221184637F0B4F9224B1C686FF07F4012
:101A4000FEF709FF03464FF400321946204637F0EF
:101A500046F91C4B1B684FF400320021184637F042
:101A600052F9184B1B684FF400320021184637F02A
:101A70005DF9144B1B684FF40032FF21184637F014
:101A800069F9104B1B684FF400320F49184637F0C4
:101A900075F90C4B1C686FF07F40FEF7DCFE0346C7
:101AA0004FF440321946204637F019F9054B1B68B0
:101AB0004FF440320021184637F025F900BF0C37AB
:101AC000BD4690BDBC11FE1FB8EE080080B582B0C7
:101AD00000AF7860054B1B68002279681846FEF756
:101AE00001FF00BF0837BD4680BD00BFBC11FE1F0F
:101AF00080B582B000AF7860786873F029FE034645
:101B00000A4A1360094B1B68F0224FF4C87118464B
:101B100065F0FCFB054B186800230022092165F0E5
:101B20003BFD00BF0837BD4680BD00BFA011FE1FB2
:101B300080B586B000AFF860B9607A603B60184B42
:101B40007B6100233B61BB684FF4C87202FB03F367
:101B5000FA6813443B613B695B007A69D0183B6AC1
:101B60004FF4487202FB03F31A46796815F0A5F9A1
:101B7000BB68E02B0FD13B6A3A6802FB03F35B00C2
:101B8000084A5360074A7B699360074B1B68054905
:101B9000184673F0F1FD00BF1837BD4680BD00BF89
:101BA000D011FE1F8001FE1FA011FE1F80B582B064
:101BB00000AF7860124B1B6800220821184650F0D5
:101BC00085F8104BDB681A4600210E4828F05AFAB7
:101BD0000B4B1B68184657F058F80B4B1B684FF41B
:101BE0007A71184657F0CAF8084B1B681846FFF779
:101BF00029FD786858F0D6FC00BF0837BD4680BD87
:101C0000A811FE1F7C960620A411FE1F9C11FE1F2A
:101C100080B582B000AFFEF75AFE03461846FFF7C4
:101C200079FC0346144A1360134B1B681846FFF7F0
:101C30005FFF114B1B681846FFF780FC0E4B1B68BB
:101C40001846FFF7CDFC0C4B1B681846FFF7C0FD8C
:101C5000094B1B681846FFF78DFE00224FF4FA610E
:101C6000064858F05FFC7860786858F0DDFC00BFEB
:101C70000837BD4680BD00BF9C11FE1FAD1B000094
:101C800080B400AF01231846BD465DF8047B704761
:101C900080B500AF0D4B00221A700D4B00221A7058
:101CA0000C4B01221A700C4B00221A700B4847F0A3
:101CB0001BFEFFF7E5FF0346094A1360FFF7E0FF4D
:101CC0000346084A136000BF80BD00BFF1FF00203B
:101CD000F0FF0020F2FF0020F3FF0020D8FF0020DB
:101CE000D0FF0020D4FF002080B500AFFFF7D0FF69
:101CF00000BF80BD80B582B000AF786039601B4BFB
:101D000018681B4B1A680123002117F055F9184B6E
:101D10001B681B78002B24D0154B1B689B881AB2BC
:101D20003B681A80124B1B68DB881AB23B685A80EA
:101D30000F4B1B681B78022B02D13B6801229A7360
:101D40000B4B1B681B78032B02D13B6801229A7353
:101D5000074B1B681B78012B04D13B6800229A7348
:101D600000E000BF0837BD4680BD00BFF4FF002083
:101D7000FCFF002080B586B000AF364B3B6107F119
:101D800010031946344802F02BFD334817F02CF8A5
:101D90000346324A1360314B1B68002B02D14FF0CF
:101DA000FF3353E02D4B1B680121184617F02AF82A
:101DB0002A4B1B683A1D41F20151184617F084F96D
:101DC000274815F04BFE3B791946264815F046FE8C
:101DD000254815F043FE224815F040FE7B79194650
:101DE000224815F03BFE204815F038FE1C4815F03F
:101DF00035FEBB7919461E4815F030FE1A4815F01D
:101E00002DFE174815F02AFEBB681946194815F033
:101E100025FE154815F022FE114815F01FFEFB683F
:101E20001946154815F01AFE0F4815F017FE0C213B
:101E3000012015F01BFF0346104A13600F4B1B686F
:101E4000002B02D16FF0040300E00023184618377E
:101E5000BD4680BD005F0900085F0900F4FF002057
:101E6000105F0900285F0900385F0900405F090022
:101E7000505F0900605F0900705F0900FCFF0020EF
:101E800080B582B000AF0F485DF0E0FE0D4B01223F
:101E90001A700C4B0C4A5A600A485DF0F9FE034672
:101EA0000A4A1360FFF766FF78607B68002B04D056
:101EB00056220749074815F02DFF00BF0837BD46D9
:101EC00080BD00BF00000120F51C0000F8FF0020CD
:101ED000905F0900805F090080B584B000AFF860B2
:101EE000B9607A60BB68B3F900301846BB68B3F9D3
:101EF00002301946BB687A6826F0DEFAF8684EF0C0
:101F00008BFF00BF1037BD4680BDFFFF80B500AF1F
:101F1000294816F069FF0346284A1360274B1B68BF
:101F2000002B04D174222649264815F0F3FE234BDA
:101F30001B680321184616F065FF0346002B07D1E6
:101F40001E4B1B68204A40F20371184617F0BCF87C
:101F50001D4B5B78082B10D01B4B5B78102B0CD0E3
:101F6000194B5B78182B08D0174B5B78202B04D0CB
:101F70007B221349154815F0CDFE4FF4FF43002294
:101F8000134914484EF0BEFD13484EF079FD124B34
:101F90004FF4F0721A80104B4FF488725A800E4B37
:101FA0000C4ADA600C4B0D4A5A61FFF79DFE0A4855
:101FB0004EF0C4FD00BF80BDA45F09009CFF01205E
:101FC0002C600900A85F09008CFF0120BC5F09009C
:101FD0008C000120200001203C000120D91E0000BF
:101FE00080B483B000AF786039607B683A681A606B
:101FF00000BF0C37BD465DF8047B704780B483B0EA
:1020000000AF786039607B683A685A6000BF0C376F
:10201000BD465DF8047B704780B483B000AF786044
:1020200039603A687B68DA6200BF0C37BD465DF8FC
:10203000047B704780B485B000AFF860B9607A6007
:10204000FB68BA681A62FB68BA685A62FB687A6809
:102050009A6200BF1437BD465DF8047B704780B4B8
:1020600083B000AF786039607B683A689A6300BFDC
:102070000C37BD465DF8047B704780B483B000AF79
:1020800078600B467B807B687A88A3F8402000BF8D
:102090000C37BD465DF8047B704780B483B000AF59
:1020A0000346FB80B7F90630002B08DAFB88C3F53E
:1020B0007A739BB21BB243F400531BB203E0FB885C
:1020C00043F400531BB218460C37BD465DF8047B41
:1020D000704780B485B000AF78607B681B0A9BB204
:1020E00023F4FF6323F007039AB27B685B099BB27A
:1020F00003F4FC639BB213439AB27B68DB089BB288
:1021000003F01F039BB213439BB2BB81BB891846EC
:102110001437BD465DF8047B7047FFFF80B582B081
:1021200000AF7860044A002178684AF0CBFD00BF18
:102130000837BD4680BD00BFFFFF0F0080B500AF70
:102140004EF0F8FD0346184652F010FA03461846C2
:1021500080BDFFFF80B500AF09486BF028F8094B40
:102160001B78002B01D07F2300E0FF231946044891
:1021700056F0B1FA024801F09BFC00BF80BD00BFE1
:10218000A4FF01208C01FE1F80B500AF0B486BF04F
:102190000EF80521094856F0CDFC094B1B78002BA1
:1021A00001D07F2300E0FF231946044856F093FA3C
:1021B000024801F07DFC00BF80BD00BFA4FF0120EC
:1021C0008C01FE1F80B500AF0B486AF0F0FF47F6A8
:1021D000FF71094856F0AEFC084B1B78002B01D06C
:1021E0007F2300E0FF231946034856F074FA0248A3
:1021F00001F05EFC00BF80BDA4FF01208C01FE1F2A
:1022000080B500AF0B486AF0D2FF0221094856F0B2
:10221000B8FA094B1B78002B01D07F2300E0FF2385
:102220001946044856F09CFA024801F041FC00BFF0
:1022300080BD00BFA4FF01208C01FE1F80B500AF50
:102240000D486AF0B4FF05210B4856F073FC0221DB
:10225000094856F096FA094B1B78002B01D07F23D2
:1022600000E0FF231946044856F07AFA024801F0CC
:102270001FFC00BF80BD00BFA4FF01208C01FE1F1A
:1022800080B500AF0D486AF092FF47F6FF710B482A
:1022900056F050FC0221094856F073FA084B1B789F
:1022A000002B01D07F2300E0FF231946034856F09E
:1022B00057FA024801F0FCFB00BF80BDA4FF0120DB
:1022C0008C01FE1F80B500AF0F486AF070FF05213A
:1022D0000D4856F02FFC02210B4856F052FA0B4BDA
:1022E0001B78002B01D07F2300E0FF23194606480E
:1022F00056F036FA0221044856F055FA024801F029
:10230000D7FB00BF80BD00BFA4FF01208C01FE1FD2
:1023100080B500AF0F486AF04AFF05210D4856F01E
:1023200009FC02210B4856F02CFA0B4B1B78002BB2
:1023300001D07F2300E0FF231946064856F010FA2B
:102340000421044856F02FFA024801F0B1FB00BF07
:1023500080BD00BFA4FF01208C01FE1F80B500AF2F
:102360000F486AF024FF05210D4856F0E3FB0221D7
:102370000B4856F006FA0B4B1B78002B01D07F233D
:1023800000E0FF231946064856F0EAF90621044802
:1023900056F009FA024801F08BFB00BF80BD00BF78
:1023A000A4FF01208C01FE1F80B500AF0F486AF02A
:1023B000FEFE05210D4856F0BDFB02210B4856F0EC
:1023C000E0F90B4B1B78002B01D07F2300E0FF23AB
:1023D0001946064856F0C4F90C21044856F0E3F9B2
:1023E000024801F065FB00BF80BD00BFA4FF0120D3
:1023F0008C01FE1F80B500AF0F486AF0D8FE0521A2
:102400000D4856F097FB02210B4856F0BAF90B4BDA
:102410001B78002B01D07F2300E0FF2319460648DC
:1024200056F09EF90321044856F0BDF9024801F028
:102430003FFB00BF80BD00BFA4FF01208C01FE1F39
:1024400080B500AF0F486AF0B2FE05210D4856F086
:1024500071FBFF210B4856F03EF90B4B1B78002B0C
:1024600001D0CC2300E0FF231946064856F05EFA5F
:102470000521044856F000FA024801F019FB00BF9C
:1024800080BD00BFA4FF01208C01FE1F80B500AFFE
:1024900015486AF08CFE0521134856F04BFBFF21CE
:1024A000114856F018F9114B1B78002B01D0CC23A2
:1024B00000E0FF2319460C4856F038FA05210A4877
:1024C00056F0DAF90421084856F0E8F904210648E4
:1024D00056F0F6F90221044856F004FA024801F0D9
:1024E000E7FA00BF80BD00BFA4FF01208C01FE1FE2
:1024F00080B500AF0F486AF05AFE05210D4856F02E
:1025000019FBFF210B4856F0E6F80B4B1B78002B0C
:1025100001D0CC2300E0FF231946064856F006FA06
:102520001121044856F0A8F9024801F0C1FA00BF91
:1025300080BD00BFA4FF01208C01FE1F80B500AF4D
:1025400015486AF034FE0521134856F0F3FAFF21CE
:10255000114856F0C0F8114B1B78002B01D0CC234A
:1025600000E0FF2319460C4856F0E0F911210A4813
:1025700056F082F90821084856F090F908210648DB
:1025800056F09EF90221044856F0ACF9024801F0D9
:102590008FFA00BF80BD00BFA4FF01208C01FE1F89
:1025A00080B582B002AF0C486AF001FE0B4B1B787D
:1025B000002B01D07F2300E0FF231946064856F088
:1025C000C6F900230093002300220549024801F0C8
:1025D000E7FA00BFBD4680BDA4FF01208C01FE1FAD
:1025E000E0980A0080B582B002AF0C486AF0DFFDC7
:1025F0000B4B1B78002B01D07F2300E0FF231946F3
:10260000064856F0A4F90023009300230022054950
:10261000024801F0C5FA00BFBD4680BDA4FF0120FD
:102620008C01FE1F44DA090080B582B002AF0C486D
:102630006AF0BDFD0B4B1B78002B01D07F2300E01F
:10264000FF231946064856F082F900230093002321
:1026500000220549024801F0A3FA00BFBD4680BD33
:10266000A4FF01208C01FE1FB44A0A0080B582B08D
:1026700002AF0C486AF09BFD0B4B1B78002B01D07E
:102680007F2300E0FF231946064856F060F9002337
:102690000093002300220549024801F081FA00BF9F
:1026A000BD4680BDA4FF01208C01FE1F4CB20A0074
:1026B00080B582B002AF0C486AF079FD0B4B1B78F5
:1026C000002B01D07F2300E0FF231946064856F077
:1026D0003EF900230093002300220549024801F03F
:1026E0005FFA00BFBD4680BDA4FF01208C01FE1F24
:1026F00088FC090080B582B002AF0E486AF057FD31
:102700000D4B1B78002B01D07F2300E0FF231946DF
:10271000084856F01CF97F21064856F029F9002395
:102720000093002300220549024801F039FA00BF56
:10273000BD4680BDA4FF01208C01FE1FE0980A0069
:1027400080B582B002AF0E486AF031FD0D4B1B78A8
:10275000002B01D07F2300E0FF231946084856F0E4
:10276000F6F87F21064856F003F900230093002372
:1027700000220549024801F013FA00BFBD4680BDA2
:10278000A4FF01208C01FE1F44DA090080B582B04D
:1027900002AF0E486AF00BFD0D4B1B78002B01D0E9
:1027A0007F2300E0FF231946084856F0D0F87F2128
:1027B000064856F0DDF80023009300230022054967
:1027C000024801F0EDF900BFBD4680BDA4FF012025
:1027D0008C01FE1FB44A0A0080B582B002AF0E48D9
:1027E0006AF0E5FC0D4B1B78002B01D07F2300E045
:1027F000FF231946084856F0AAF87F21064856F0EC
:10280000B7F800230093002300220549024801F095
:10281000C7F900BFBD4680BDA4FF01208C01FE1F8B
:102820004CB20A0080B582B002AF0C486AF0BFFC1F
:102830000B4B1B78002B01D07F2300E0FF231946B0
:10284000064856F084F8002300930023012205492E
:10285000024801F0A5F900BFBD4680BDA4FF0120DC
:102860008C01FE1FE0980A0080B582B002AF0C48D0
:102870006AF09DFC0B4B1B78002B01D07F2300E0FE
:10288000FF231946064856F062F8012300930023FF
:1028900001220549024801F083F900BFBD4680BD11
:1028A000A4FF01208C01FE1FE0980A0080B582B0D1
:1028B00002AF0C486AF07BFC0B4B1B78002B01D05D
:1028C0007F2300E0FF231946064856F040F8002316
:1028D0000093002301220549024801F061F900BF7D
:1028E000BD4680BDA4FF01208C01FE1F44DA090013
:1028F00080B582B002AF0C486AF059FC0B4B1B78D4
:10290000002B01D07F2300E0FF231946064856F034
:102910001EF801230093002301220549024801F01B
:102920003FF900BFBD4680BDA4FF01208C01FE1F02
:1029300044DA090080B582B002AF0C486AF037FC77
:102940000B4B1B78002B01D07F2300E0FF2319469F
:10295000064855F0FCFF002300930123002205499F
:10296000024801F01DF900BFBD4680BDA4FF012053
:102970008C01FE1FE0980A0080B582B002AF0C48BF
:102980006AF015FC0B4B1B78002B01D07F2300E075
:10299000FF231946064855F0DAFF0123009301236F
:1029A00000220549024801F0FBF800BFBD4680BD8A
:1029B000A4FF01208C01FE1FE0980A0080B582B0C0
:1029C00002AF0C486AF0F3FB0B4B1B78002B01D0D5
:1029D0007F2300E0FF231946064855F0B8FF002387
:1029E0000093012300220549024801F0D9F800BFF5
:1029F000BD4680BDA4FF01208C01FE1F44DA090002
:102A000080B582B002AF0C486AF0D1FB0B4B1B784B
:102A1000002B01D07F2300E0FF231946064855F024
:102A200096FF01230093012300220549024801F08B
:102A3000B7F800BFBD4680BDA4FF01208C01FE1F7A
:102A400044DA090080B500AF0D486AF0B0FB002001
:102A50005DF0F8F903461946094856F038F8094B75
:102A60001B78002B01D07F2300E0FF231946044888
:102A700056F01CF8024801F027F900BF80BD00BFE6
:102A8000A4FF01208C01FE1F80B500AF0D486AF045
:102A90008EFB00205DF0ECF903461946094856F01C
:102AA00016F8094B1B78002B01D07F2300E0FF2391
:102AB0001946044855F0FAFF024801F005F900BF35
:102AC00080BD00BFA4FF01208C01FE1F80B500AFB8
:102AD0000D486AF06CFB00205DF0E0F903461946F2
:102AE000094855F0F4FF094B1B78002B01D07F23D8
:102AF00000E0FF231946044855F0D8FF024801F0D2
:102B0000E3F800BF80BD00BFA4FF01208C01FE1FC1
:102B100080B500AF0B486AF04AFB0B49094855F0F5
:102B2000D6FF0A4B1B78002B01D07F2300E0FF2348
:102B30001946044855F0BAFF024801F0C5F800BF35
:102B400080BD00BFA4FF01209407FE1F8C01FE1F63
:102B500080B500AF0B486AF02AFB0B49094855F0D5
:102B6000B6FF0A4B1B78002B01D07F2300E0FF2328
:102B70001946044855F09AFF024801F0A5F800BF35
:102B800080BD00BFA4FF0120FC07FE1F8C01FE1FBB
:102B900080B500AF0B486AF00AFB0B49094855F0B5
:102BA00096FF0A4B1B78002B01D07F2300E0FF2308
:102BB0001946044855F07AFF024801F085F800BF35
:102BC00080BD00BFA4FF0120C807FE1F8C01FE1FAF
:102BD00080B500AF0B486AF0EAFA0221094855F0C7
:102BE000D8FE094B1B78002B01D07F2300E0FF2388
:102BF0001946044855F0F1FE024801F0A1F800BF63
:102C000080BD00BFA4FF01208C01FE1F80B500AF76
:102C10000B486AF0CCFA0221094855F0EFFE094B47
:102C20001B78002B01D07F2300E0FF2319460448C6
:102C300055F019FF024801F049F900BF80BD00BFFF
:102C4000A4FF01208C01FE1F80B500AF0B486AF085
:102C5000AEFA0821094855F0D1FE094B1B78002B2C
:102C600001D07F2300E0FF231946044855F0FBFE06
:102C7000024801F02BF900BF80BD00BFA4FF012076
:102C80008C01FE1F80B586B000AF0346FB711D4A64
:102C9000FB79137000F03AF81A4B1B78022B22D103
:102CA00019E000237B610FE062F045FEF86000BF91
:102CB000F86862F047FE0346132BF9D9002043F071
:102CC00011F87B6901337B617B69312BECD900F012
:102CD0002DF900F0F3F800F0B7F90346012BE0D02E
:102CE00000F0FEFB09E000224FF47A71064857F02D
:102CF00019FC3861386957F097FC00BF1837BD469A
:102D000080BD00BFA0FF012085310000B0B586B0B6
:102D100002AF4EF00FF8F8605C4B1B78002B0DD122
:102D2000FB681B685A4A5A63FB681B685B69594A0F
:102D30001360FB681B68584A5A613CE0534B1B7890
:102D4000012B09D1FB681B685B69524A1360FB6861
:102D50001B68514A5A612EE04C4B1B78022B2AD13A
:102D6000FB681B684A4A5A63FB681B684B4A5A62F5
:102D7000FB681B685B69474A1360FB681B68464A2F
:102D80005A61FB685B68002B0AD0FB685B681B68B4
:102D9000434A1360FB685B680221184657F036FC13
:102DA0002CF078FDB860BB681B683E4A13600221B6
:102DB000B86857F02BFCFFF7C1F978607868FFF727
:102DC000ADF90022FF21786835F09DFF786857F053
:102DD00037FE0346344A1360334B1B68022202213C
:102DE000184663F0F4FF304B1B683049184657F023
:102DF0003BFE786857F024FE03462D4A13602C4BA7
:102E00001868294B19680023009300230D2264F0F1
:102E1000E3FB274B1B682549184657F025FE7868C9
:102E200061F02CF80346234A1360224B1B681846B6
:102E3000FFF774F91F4B1C68786864F058FF03466D
:102E40001D46786864F061FF03469AB2184B1B6810
:102E5000B3F91A309BB2D31A9BB2023B9BB21BB29E
:102E60001A462946204664F051FA124B186800238E
:102E70000022052164F090FB0F486AF08CF9786815
:102E800064F00AFB00BF1037BD46B0BDA0FF0120B3
:102E9000AD320000B4FF0120CD320000CD31000082
:102EA000B8FF0120BCFF0120C4FF012028630900F6
:102EB000C8FF0120C0FF0120A4FF012080B500AFA2
:102EC000154B1B68002B25DB144B1B78002B10D0F7
:102ED000134B1868104B1A6812491346DB00134451
:102EE0009B000B441C331B681A460F4957F03EFEEB
:102EF00011E00B4B1868084B1A680A491346DB00AF
:102F000013449B000B4418331B681A46064957F0BC
:102F10002DFE00E000BF80BD7807FE1F8C01FE1F64
:102F2000C8FF01209001FE1F3C63090080B400AF80
:102F3000424B1B68002B7BDB414B1B78002B3BD0AB
:102F40003E4B1A683F491346DB0013449B000B4479
:102F50000C331B68002B0AD1384B1A6839491346C9
:102F6000DB0013449B000B440C3301221A60334BEB
:102F70001A6834491346DB0013449B000B44143396
:102F80001B684FF47A7202FB03F12C4B1A682D4830
:102F90001346DB0013449B0003440C331B68274A91
:102FA0001268B1FBF3F127481346DB0013449B0082
:102FB00003441C3319603CE0204B1A682149134636
:102FC000DB0013449B000B4408331B68002B0AD121
:102FD0001A4B1A681B491346DB0013449B000B4431
:102FE000083301221A60154B1A6816491346DB0094
:102FF00013449B000B4410331B684FF47A7202FB9E
:1030000003F10E4B1A680F481346DB0013449B0074
:10301000034408331B68094A1268B1FBF3F10948FD
:103020001346DB0013449B0003441833196000E08F
:1030300000BFBD465DF8047B704700BF7807FE1FE8
:103040008C01FE1F9001FE1F80B500AF304B1B6846
:10305000002B0DDB2E4B1A682E491346DB00134460
:103060009B000B4404331B68002B01D100234CE070
:10307000294B1B68184655F053FE284B1B78002B34
:1030800008D0234B1B680133214A1360234B0022D5
:103090001A7002E0214B01221A701D4B1B68002B95
:1030A0000DDB1B4B1A681B491346DB0013449B00C6
:1030B0000B4404331B68002B01D1002325E0184B7F
:1030C00000221A6001F020F8114B1A6811491346CA
:1030D000DB0013449B000B4404331B689847114BDF
:1030E00018680B4B1A680B491346DB0013449B000E
:1030F0000B441A68094B1B78002B01D00A4B00E0E7
:103100000A4B0B4957F032FD0123184680BD00BF22
:103110007807FE1F9001FE1FC0FF01208C01FE1FDB
:10312000ACFF0120C4FF01202C63090028630900C3
:103130003463090080B582B000AF78600F4B1B7814
:103140000133DAB20D4B1A700C4B1B78052B10D1E2
:103150000A4B00221A700A4814F080FC786857F075
:1031600021FAFEF7EBFF0346184655F0D9FDFEF7AE
:103170004FFD00BF0837BD4680BD00BFD0FF012016
:103180004C63090080B584B000AF7860FFF7CEFED5
:10319000FFF794FEFFF758FF0346FB73FB7B002B02
:1031A0000ED1786857F0FEF900F09AF900224FF43A
:1031B000FA61054857F0B6F9B860B86857F034FAC4
:1031C00000BF1037BD4680BD3531000080B584B0EA
:1031D00000AFF860B9607A60304B1B68184662F047
:1031E000B1FBB8602E4B1B78002B29D02D4B1A68F1
:1031F0002D491346DB0013449B000B4414331B681A
:10320000591C29481346DB0013449B000344143324
:103210001960244B1A6824491346DB0013449B00B1
:103220000B440C3319681F4B1A68BB6819441E48BD
:103230001346DB0013449B0003440C33196028E061
:10324000184B1A6818491346DB0013449B000B44C3
:1032500010331B68591C14481346DB0013449B00B1
:103260000344103319600F4B1A680F491346DB00F3
:1032700013449B000B44083319680A4B1A68BB6857
:10328000194409481346DB0013449B0003440833E8
:10329000196000BF1037BD4680BD00BFB0FF0120E0
:1032A0008C01FE1F7807FE1F9001FE1F80B582B0C3
:1032B00000AF786062F03FFB0346034A136000BF33
:1032C0000837BD4680BD00BFB0FF012080B588B083
:1032D00000AFF860B9607A607A4B1B78002B6CD134
:1032E000F8684DF0ABFD0346FB75774B1B687A68B9
:1032F000B968F8689847FB7D002B00F0DE80734BBF
:103300001B68184662F01EFB3861714B1B78002B5E
:1033100029D0704B1A6870491346DB0013449B0098
:103320000B4414331B68591C6B481346DB001344D1
:103330009B00034414331960664B1A6866491346B0
:10334000DB0013449B000B440C331968614B1A6873
:103350003B69194460481346DB0013449B00034457
:103360000C331960A9E05B4B1A685B491346DB001C
:1033700013449B000B4410331B68591C56481346DA
:10338000DB0013449B00034410331960514B1A684F
:1033900051491346DB0013449B000B440833196862
:1033A0004C4B1A683B6919444B481346DB001344E5
:1033B0009B000344083319607FE0424B1B78012BCC
:1033C00074D1F8684DF03AFD0346FB773E4B1B681D
:1033D0007A68B968F8689847FB7F002B6DD03F4B3F
:1033E0001B68002B5CD03D4B1B68184662F0AAFAA4
:1033F000B861374B1B78002B29D0364B1A683649F9
:103400001346DB0013449B000B4414331B68591C08
:1034100031481346DB0013449B0003441433196006
:103420002C4B1A682C491346DB0013449B000B44B9
:103430000C331968274B1A68BB6919442648134690
:10344000DB0013449B0003440C33196028E0214B3C
:103450001A6821491346DB0013449B000B441033C8
:103460001B68591C1C481346DB0013449B00034493
:1034700010331960174B1A6817491346DB001344C1
:103480009B000B4408331968124B1A68BB69194436
:1034900011481346DB0013449B00034408331960B2
:1034A00062F049FA03460D4A136006E0054B1B78AB
:1034B000022B02D1F8684DF0AFFC00BF2037BD46AB
:1034C00080BD00BFA0FF0120B4FF0120B0FF01209C
:1034D0008C01FE1F7807FE1F9001FE1FACFF01202C
:1034E00080B5D0B000AFAC4B1B78022B09D14DF0AA
:1034F00021FCC7F82401D7F824311B68A74A1268B9
:103500005A610023C7F820310023C7F83C3100235B
:10351000C7F838310023C7F81C310023C7F834310D
:103520000023C7F830310023C7F82C3165E09C49EF
:10353000D7F82C211346DB0013449B000B441833AF
:1035400019689748D7F82C211346DB0013449B00D9
:10355000034420331B7801FB03F3D7F834211344D1
:10356000C7F834318E49D7F82C211346DB001344B9
:103570009B000B4420331B781A46D7F83C31134488
:10358000C7F83C318649D7F82C211346DB00134499
:103590009B000B4420331B78032B0CD98049D7F8B0
:1035A0002C211346DB0013449B000B4420331B7873
:1035B0005B08DBB200E00123C7F800317849D7F897
:1035C0002C211346DB0013449B000B441C331B6867
:1035D000D7F8002102FB03F3D7F830211344C7F8D2
:1035E0003031D7F83821D7F800311344C7F83831D3
:1035F000D7F82C310133C7F82C316949D7F82C2181
:103600001346DB0013449B000B4404331B68002B60
:103610008DD1D7F83421D7F830311344C7F81C3195
:10362000D7F83C21D7F838311344C7F82031D7F800
:103630001C21D7F82031B2FBF3F3C7F81831D7F8C3
:103640003421D7F83C31B2FBF3F3C7F81431D7F883
:103650003021D7F83831B2FBF3F3C7F81031D7F87F
:103660001031642203FB02F2D7F81431B2FBF3F3FA
:10367000C7F80C31FEF762FD0346184655F050FBC3
:10368000484B00221A60FEF759FD034601211846F7
:103690005EF07EFFFEF752FD0346184657F0D0F964
:1036A0000346414A1360404B1B68D7F818213F4935
:1036B000184657F05BFAFEF741FD0346184657F0EF
:1036C000BFF903463A4A1360394B1B68D7F80C21FF
:1036D0003849184657F04AFAFEF730FD03461846B7
:1036E00064F021FB0346A7F80A31FEF727FD0346E5
:1036F000184632F085FBC7F804010221D7F804010F
:1037000032F06CFDB7F90A2113465B001344002B1D
:1037100000DA03339B109BB2033B9BB21BB21A46E9
:103720000021D7F8040132F023FEB7F90A31002B4B
:1037300000DA03339B101BB29BB2033B9BB21BB25C
:103740001A460121D7F8040132F012FE6420FEF778
:10375000A4FC03461946D7F8040163F0EFFD0023EB
:10376000A7F82A31B7F82A1101230022D7F804015B
:1037700032F024FEB7F82A110F4B0022D7F80401CB
:1037800032F052FBB7F82A310133A7F82A3100236F
:10379000C7F82C31B4E000BFA0FF0120B4FF012026
:1037A0009001FE1FC0FF0120C4FF01205C630900DF
:1037B000C8FF01207063090084630900B749D7F886
:1037C0002C211346DB0013449B000B4418331B6869
:1037D000132B38D8B149D7F82C211346DB001344FA
:1037E0009B000B4420331B78092B2CD9AB49D7F80D
:1037F0002C211346DB0013449B000B441B68B7F8D5
:103800002A110022D7F8040132F00EFBA349D7F8A1
:103810002C211346DB0013449B000B4418331B6818
:1038200038469F4A4FF4807114F096F83B46B7F83B
:103830002A110122D7F8040132F0F6FAB7F82A313A
:103840000133A7F82A319549D7F82C211346DB001C
:1038500013449B000B441C331B68132B4BD88F491C
:10386000D7F82C211346DB0013449B000B44203374
:103870001B78032B3FD98949D7F82C211346DB004D
:1038800013449B000B4420331B78132B33D98349FB
:10389000D7F82C211346DB0013449B000B441B6814
:1038A0003846804A4FF4807114F056F83B46B7F81A
:1038B0002A110022D7F8040132F0B6FA7749D7F876
:1038C0002C211346DB0013449B000B441C331B6864
:1038D0003846734A4FF4807114F03EF83B46B7F80F
:1038E0002A110122D7F8040132F09EFAB7F82A31E2
:1038F0000133A7F82A31D7F82C310133C7F82C311E
:103900006649D7F82C211346DB0013449B000B4477
:1039100004331B68002B7FF451AFB7F82A31012B19
:1039200014D1B7F82A1101230022D7F8040132F08C
:1039300045FDB7F82A115C4B0022D7F8040132F09C
:1039400073FAB7F82A310133A7F82A31B7F82A11E8
:1039500001230022D7F8040132F030FDB7F82A1114
:10396000524B0022D7F8040132F05EFAB7F82A3140
:103970000133A7F82A310023C7F82C317BE04749EF
:10398000D7F82C211346DB0013449B000B441B6823
:10399000B7F82A110022D7F8040132F045FA3F495E
:1039A000D7F82C211346DB0013449B000B4418333B
:1039B0001B6838463A4A4FF4807113F0CDFF3B46FE
:1039C000B7F82A110122D7F8040132F02DFA334951
:1039D000D7F82C211346DB0013449B000B4418330B
:1039E0001B68092BB7F82A310133A7F82A312B4974
:1039F000D7F82C211346DB0013449B000B441B68B3
:103A00003846284A4FF4807113F0A6FF3B46B7F8BA
:103A10002A110022D7F8040132F006FA1F49D7F81C
:103A20002C211346DB0013449B000B441C331B6802
:103A300038461B4A4FF4807113F08EFF3B46B7F8AF
:103A40002A110122D7F8040132F0EEF91349D7F810
:103A50002C211346DB0013449B000B441C331B68D2
:103A6000092BB7F82A310133A7F82A31D7F82C31BE
:103A70000133C7F82C310949D7F82C211346DB0054
:103A800013449B000B4404331B68002B7FF477AF77
:103A900000BF00BF07F5A077BD4680BD9001FE1FA7
:103AA0009C630900A0630900AC630900B8630900C6
:103AB00090B585B000AF78600023FB6064E0364BC2
:103AC0001B68184660F0DAF9B860B868FEF726FBA4
:103AD00000227968B86849F05BF83049002000F0AE
:103AE0001FFB03461846FEF7F4FA03460022194668
:103AF000B86835F0F4F82949002000F011FB0346BE
:103B00001846FEF7E6FA034600221946B86835F073
:103B10005AF92249002000F003FB03461846FEF73D
:103B2000D8FA034600221946B86835F088F94DF0F6
:103B300001F9034618464DF009F90346DA0F13441C
:103B40005B101BB21946052000F0EAFA03461CB2CE
:103B50004DF0F0F8034618464DF0F8F80346DA0F3A
:103B600013445B101BB21946052000F0D9FA034636
:103B70001BB21A462146B86863F0C8FBB86800F06B
:103B800057FAFB680133FB60FB68072B97D900BF2E
:103B900000BF1437BD4690BDC0FF0120F0FFFF00FD
:103BA00090B587B000AFF860B96011461A460B4671
:103BB000FB711346BB7100237B6147E03E4B1B68E2
:103BC000184671F0C5FD38613869FEF7A7FA002282
:103BD000F968386948F0DCFFB968386971F0CCFDE4
:103BE0003649002000F09CFA03461846FEF771FAA9
:103BF000034600221946386935F035F9FB79002B68
:103C00000AD040F60F61002000F08AFA03461BB28A
:103C10001946386971F0D8FEBB79002B0AD04FF4F1
:103C2000A071802000F07CFA03469BB219463869E7
:103C300071F0A2FF97F828301946386972F06FF8D2
:103C4000386900F0F5F97B6901337B614DF072F85A
:103C5000034618464DF07AF803461C464DF06AF8C4
:103C6000034618464DF098F8034604FB03F3144A44
:103C7000934218DD4DF05EF8034618464DF066F8A5
:103C800003461C464DF056F8034618464DF084F89E
:103C9000034604FB03F30B4A82FB03121213DB17E8
:103CA000D31A1A4600E001227B699A4286D800BFE7
:103CB00000BF1C37BD4690BDC0FF0120F0FFFF00D4
:103CC0009F86010089B5F81480B584B000AF786094
:103CD0000023FB6025E0174B1B68184656F0B0FE2A
:103CE000B860B868FEF71AFA00227968B86848F038
:103CF0004FFF1149002000F013FA03461846FEF763
:103D0000E8F9034600221946B86835F0E8F80B498F
:103D1000B86856F0A9FEB86800F08AF9FB6801336C
:103D2000FB60FB68072BD6D900BF00BF1037BD462C
:103D300080BD00BFC0FF0120F0FFFF00C463090089
:103D400090B587B000AF786000237B619DE0534A57
:103D50007B699B01134400221A80504A7B699B01B6
:103D60001344023300221A8001233B615FE03B6968
:103D7000013B4A497A691201134431F923309CB25C
:103D80004CF0D8FF034618464CF0E0FF0346B3F56D
:103D9000997F0EDB4CF0CEFF034618464CF0D6FF61
:103DA00003463F4A82FB03129210DB17D31A1BB261
:103DB00000E010231946082000F0B2F903469BB238
:103DC00023449BB218B235497B691A013B691344FD
:103DD000024621F823204CF0ADFF034618464CF074
:103DE000B5FF0346B3F5997F0EDB4CF0A3FF034606
:103DF00018464CF0ABFF0346294A82FB031292108F
:103E0000DB17D31A1BB200E010231946082000F07C
:103E100087F9034618B221497B691A013B691344AB
:103E20009B000B4402465A803B6901333B613B696E
:103E30000F2B9CD91B4B1B68184665F01FFCF860C4
:103E4000F868FEF76BF900227968F86848F0A0FE80
:103E50001549002000F064F903461846FEF739F9C9
:103E6000034600221946F86835F011F87B699B017A
:103E70000A4A134410221946F86865F013FCF868E2
:103E800000F0D6F87B6901337B617B69072B7FF6F5
:103E90005EAF00BF00BF1C37BD4690BDD4FF012000
:103EA000398EE338C0FF0120F0FFFF0080B582B0FB
:103EB00000AF786039603B689BB2194678684EF075
:103EC00036FC00BF0837BD4680BDFFFF90B597B0F8
:103ED00000AF786000237B658AE04A4B1B68184678
:103EE0004EF0AAFB3865386DFEF718F94CF022FF4A
:103EF000034618464CF02AFF0346DA0F13445B10C2
:103F00001BB21946052000F00BF903461CB24CF019
:103F100011FF034618464CF019FF0346DA0F13440D
:103F20005B101BB21946052000F0FAF803461BB2DD
:103F30001A462146386D63F0E9F94FF4003279688A
:103F4000386D48F025FE3049002000F0E9F80346BE
:103F50001846FEF7BEF803464FF400321946386D96
:103F600034F0A9FF0021386D4EF07AFBFA2132209F
:103F700000F0D6F80346FB6407F1080318462BF05F
:103F80007BFB07F10803396D1846FEF729F807F1A6
:103F900008031E491846FEF731F84FF496711E20AB
:103FA00000F0BEF8014607F1080340F26712184618
:103FB000FEF740F807F10803F96C1846FEF72CF8F5
:103FC00007F10803F96C1846FEF749F807F10803F2
:103FD0004FF6FF711846FEF750F807F10803184630
:103FE0002BF070FB386D00F023F87B6D01337B659F
:103FF0007B6D072B7FF671AF00BF00BF5C37BD46FE
:1040000090BD00BFC0FF0120F0FFFF00AD3E0000EB
:1040100080B582B000AF786039603B681BB219464A
:10402000786862F011FF00BF0837BD4680BDFFFF12
:1040300090B595B000AF7860786863F02DFA304B9A
:104040001B68184663F053FE03461C46786863F00D
:104050004EFE0346E31A1946002000F061F80346BD
:104060001BB21946786862F0CAFE4FF47A71C82014
:1040700000F056F80346FB6407F1080318462BF0DE
:10408000FBFA07F1080379681846FDF7A9FF07F165
:1040900008031C491846FDF7B1FF194B1B68184669
:1040A00063F033FE03461C46786863F02EFE034639
:1040B000E21A07F1080300211846FDF7BBFF07F1DC
:1040C0000803F96C1846FDF7A7FF07F10803F96C20
:1040D0001846FDF7C4FF07F108034FF6FF711846B5
:1040E000FDF7CBFF7B6BDA0F13445B10BB6307F16B
:1040F000080318462BF0E6FA00BF5437BD4690BDC2
:10410000C0FF01201140000080B400AF034B00222B
:104110001A6000BFBD465DF8047B7047CCFF0120EC
:1041200080B487B000AF786039607A683B689A42A3
:1041300001D17B6828E07A683B689A4205DD7B689C
:104140007B613B687B607B693B603A687B68D31A24
:104150003B61104B1B68104A52F823303A69B3FB9D
:10416000F2F101FB02F29A1A7B681344FB60094BDF
:104170001B680133074A1360064B1B683F2B02D9AB
:10418000044B00221A60FB6818461C37BD465DF8D8
:10419000047B7047CCFF01201464090080B400AF99
:1041A000024B1846BD465DF8047B7047D4010220DF
:1041B00080B584B000AF78607B68FB60FB6893F8E3
:1041C0002C30012B25D1FB685B6B5A1CFB685A63B2
:1041D000FB685B6BB3F57A7F0FD1FB6800225A63F3
:1041E000FB68DA6BFB689B6BD31A03F57A72FB688A
:1041F0001A64FB689A6BFB68DA6315F035FE0246B9
:10420000FB685B6C9A4204D1FB689B6B5A1CFB6891
:104210009A6300BF1037BD4680BDFFFF80B588B0F0
:1042200002AFFFF7BBFF38613B69FB60FB681846D4
:1042300015F0D0FB03460A2B33D002230193012350
:1042400000933B69194A1A49F86813F055FE3B6917
:10425000012283F82D2000237B6114E0381D7B6947
:10426000144A082113F078FB3B1D184616F0ECF8B1
:1042700001463A697B6904331B0113440433196016
:104280007B6901337B613B6993F82D301A467B696A
:104290009342E3DB3B69012283F82C20F86813F09A
:1042A000B1FE002318461837BD4680BDB14100005D
:1042B00058B20A0060B20A00B0B584B000AFFFF790
:1042C0006DFF38600023FB604FF00003BB603B686C
:1042D00093F82C30012B3AD100237B600BE03A6835
:1042E0007B6804331B0113441B68FA681344FB60AA
:1042F0007B6801337B603B6893F82D301A467B68FE
:104300009342ECDBF86879F0CBFB4FF00002144BE2
:1043100079F040FC02460B4614461D463B6893F874
:104320002D301A464FF47A7302FB03F3184679F0E6
:10433000C7FB02460B462046294679F055FD02464A
:104340000B461046194679F01DFF0346BB60BB685B
:1043500007EE903AB0EE670A1037BD46B0BD00BF19
:104360000000594090B583B000AF786013E000BF03
:10437000114B1B68DC6F15F0A1FB02460F4BA3FB32
:1043800002135B09642101FB03F3D31A9C42EFD2B1
:10439000012015F00BFF084B1B68002B04D0064BC7
:1043A0001B68DB6F002BE2D1034B00221A6000BFB9
:1043B0000C37BD4690BD00BF1C0202201F85EB518B
:1043C00090B585B002AF786039607B68032B49D126
:1043D0003B6804331B683049184612F094FE0346CC
:1043E000002B3FD12D4B1B68002B0CD03B680833B2
:1043F0001B682A4A14680A220021184675F0F2FC4C
:104400000346E36725E0142301931E2300934FF432
:10441000807300222249234815F0D4FD03461F4A29
:1044200013601E4B1B68002B02D11F4813F016FBB4
:104430003B6808331B68194A14680A220021184691
:1044400075F0D0FC0346E367144B1B68184615F063
:1044500017FD124B1B68DB6F25221946134813F01A
:10446000FDFA14E07B68012B0BD1FFF725FFF0EE7E
:10447000407AFDEEE77A17EE901A0D4813F0EEFA47
:1044800005E03B681B6819460A4813F0E7FA00BFCD
:104490000C37BD4690BD00BF68B20A001C02022066
:1044A000654300006CB20A0074B20A008CB20A00C4
:1044B000A8B20A00B4B20A0080B586B000AF786036
:1044C0000B46FB701346BB7007F10C0300221A6009
:1044D0005A609A60FB783B72BB787B723823BB8151
:1044E0000023FB8107F108037B6102233B8207F174
:1044F0000C0301221946786826F0EEF80346012BDA
:1045000008D0064813F0AAFA054813F0A7FA0548A0
:1045100013F0A4FA00BF1837BD4680BDCCB20A0024
:10452000DCB20A00F8B20A0080B588B000AFF860CB
:104530007A601A460B46FB721346BB7207F11403EE
:1045400000221A605A609A60FB7AFB743823BB829F
:104550000023FB8207F11303FB6101233B8307F177
:10456000140301221946F86826F0B6F80346012B19
:1045700008D0144813F072FA134813F06FFA134876
:1045800013F06CFA3823BB820123FB827B68FB614A
:10459000BB7A9BB23B8307F1140301221946F868EA
:1045A00026F09AF80346012B08D0064813F056FA75
:1045B000074813F053FA054813F050FA00BF2037AC
:1045C000BD4680BDCCB20A00DCB20A00F8B20A00D7
:1045D00000B30A0080B582B000AF786000220021ED
:1045E0007868FFF769FF0022A4217868FFF764FF6D
:1045F000162280217868FFF75FFF0C2288217868F7
:10460000FFF75AFF00BF0837BD4680BD80B588B0B0
:1046100000AFF860B9607A600023FB61BB68BB61E2
:10462000BB6900221A7015F049FA0246BB699A600C
:10463000FB68DB6D184626F025F8F861FB69002B56
:104640000BD1404813F00AFA3F4813F007FA3F48ED
:1046500013F004FA6FF0070370E007F1140201236E
:104660000221F869FFF760FF3B7D002B25D1384B15
:104670001B78012B1FD1374B1B780133DAB2354B36
:104680001A70344B1B78022B15D9324B00221A704A
:104690002F4B00221A70BB6901221A7015F00EFA16
:1046A0000246BB699A602C4B1A88BB699A802B4BD7
:1046B0001A88BB69DA80002340E0264B00221A707A
:1046C0007B68DBB29B00DBB207F114020321F869BF
:1046D000FFF72AFF3B7D1B029BB203F470639AB283
:1046E0007B7D9BB213449AB2BB699A80BB7D1B024F
:1046F0009BB203F470639AB2FB7D9BB213449AB2EF
:10470000BB69DA8015F0DAF90246BB699A60104B92
:104710001B78002B06D10E4B01221A70BB690222B6
:104720001A7002E0BB6903221A70BB699A880A4BAF
:104730001A80BB69DA88094B1A8000231846203793
:10474000BD4680BDCCB20A001CB30A00F8B20A0014
:104750002002022021020220220202202402022042
:1047600080B487B000AFF860B9607A60BB68A3F529
:10477000A853072B2CD801A252F823F0D1470000F0
:104780009D470000D1470000D1470000D1470000FD
:10479000D1470000D1470000D14700007B687B6112
:1047A000FB6893F852207B699A70FB685A6D7B69AD
:1047B0005A60FB689A6D7B699A60FB6893F8502099
:1047C0007B691A70FB6893F851207B695A7000E08E
:1047D00000BF002318461C37BD465DF8047B7047B8
:1047E00080B584B000AF786039600023FB6000239F
:1047F000BB606C21012013F039FAF860FB68002BD4
:1048000002D16FF004032BE03B681B68184625F0CB
:1048100039FFB860BB68002B02D16FF007031FE0BF
:10482000B868FFF7D7FEFB685C3308223968184682
:1048300012F043FBFB680C4A503307CA83E80700B9
:10484000FB680A4A5A66002301227968F8682AF050
:1048500083FE0346002B02D06FF0070300E0002325
:1048600018461037BD4680BD1808FE1F34B30A0035
:1048700080B500AF55F08CFD0346184680BD80B56D
:1048800082B000AF78605FF09FFAFDF73FFBFDF765
:10489000F7FAFBF7F5FEFFF7EBFF192015F092FC96
:1048A000F9E7FFFF80B586B004AF0023039314231C
:1048B00002934FF4805301930F4B009300230F4A50
:1048C0000F49104815F098FA78607B68002B0BD0E0
:1048D0000D4813F0C3F80D4813F0C0F80C4813F05E
:1048E000BDF84FF0FF3303E0064815F0C9FA002386
:1048F00018460837BD4680BDA80202207F48000048
:104900003CB30A002802022044B30A0054B30A0050
:1049100074B30A0080B485B000AF78600023FB60F8
:104920007B68B3F1804F06D34FF40043FB607B6894
:1049300003F140437B60FB68DB0303F18053BB6002
:104940007A68BB689A4207D3FB6803F58043FB6033
:104950007A68BB68D31A7B60FB689B0303F18063B2
:10496000BB607A68BB689A4207D3FB6803F50053C3
:10497000FB607A68BB68D31A7B60FB685B0303F15A
:104980008073BB607A68BB689A4207D3FB6803F503
:104990008053FB607A68BB68D31A7B60FB681B039B
:1049A00003F58003BB607A68BB689A4207D3FB6853
:1049B00003F50063FB607A68BB68D31A7B60FB6811
:1049C000DB0203F58013BB607A68BB689A4207D3A9
:1049D000FB6803F58063FB607A68BB68D31A7B6071
:1049E000FB689B0203F58023BB607A68BB689A4230
:1049F00007D3FB6803F50073FB607A68BB68D31AC2
:104A00007B60FB685B0203F58033BB607A68BB6840
:104A10009A4207D3FB6803F58073FB607A68BB6832
:104A2000D31A7B60FB681B0203F58043BB607A6886
:104A3000BB689A4206D3FB688033FB607A68BB6828
:104A4000D31A7B60FB68DB0103F58053BB607A6897
:104A5000BB689A4206D3FB684033FB607A68BB6848
:104A6000D31A7B60FB689B0103F58063BB607A68A7
:104A7000BB689A4206D3FB682033FB607A68BB6848
:104A8000D31A7B60FB685B0103F58073BB607A68B7
:104A9000BB689A4206D3FB681033FB607A68BB6838
:104AA000D31A7B60FB681B014033BB607A68BB682C
:104AB0009A4206D3FB680833FB607A68BB68D31A56
:104AC0007B60FB68DB001033BB607A68BB689A428E
:104AD00006D3FB680433FB607A68BB68D31A7B603B
:104AE000FB689B000433BB607A68BB689A4206D3BC
:104AF000FB680233FB607A68BB68D31A7B60FB6893
:104B00005B000133BB607A68BB689A4202D3FB68E2
:104B10000133FB60FB6818461437BD465DF8047B23
:104B2000704780B483B000AF78607B685B087A68B8
:104B300013437B607B689B087A6813437B607B68C8
:104B40001B097A6813437B607B681B0A7A681343EE
:104B50007B607B681B0C7A6813437B607B6818461C
:104B60000C37BD465DF8047B704780B483B000AF5E
:104B7000786039603B685AB27B6883F8C6213B682D
:104B800018460C37BD465DF8047B704780B586B08B
:104B900000AFF860B9607A603B607B6A23F0300355
:104BA0007B617B6A03F01003002B0CD0FB68D3F809
:104BB000803003F40003002B05D10921F868FFF7CA
:104BC000D4FF034645E07B6A03F02003002B0CD0A2
:104BD000FB68D3F8803003F40013002B05D10921C2
:104BE000F868FFF7C2FF034633E07B690D2B05D061
:104BF0007B690E2B02D07B690F2B12D1FB68D3F897
:104C0000803003F48033002B0BD1FB68D3F8803065
:104C1000DBB2092B05D80921F868FFF7A6FF034688
:104C200017E0FB685B6A3B613B69BA68C3F86821BF
:104C30003B697A68C3F86C213B693A68C3F8702114
:104C40003B693A6AC3F874213B697A6AC3F87821F0
:104C5000002318461837BD4680BDFFFF80B59CB0C5
:104C600006AFF860B9607A607B8000237B63002325
:104C7000FB62FB681B6BBB6200233B63FB685B6AE8
:104C80007B627B6AD3F8783103F01003FB627B6AA6
:104C9000D3F86C31B3F5006F03DB7B6F23F00803AF
:104CA0007B67BB687B647B683B647A887B6C1A4457
:104CB0007B6AD3F870319A4205DD7B6AD3F87021A4
:104CC0007B88D31A7B64B7F860203B6C1A447B6AFC
:104CD000D3F874319A4206DD7B6AD3F87421B7F8B1
:104CE0006030D31A3B64FB685B6A3B62BB6A002B93
:104CF00000F09D807B6F03F48073002B40F0978061
:104D00007B6ADA7DBB6A1A707B6A93F80E21BB6AF4
:104D10009A707B6A93F8D520BB6A5A707B6AD3F885
:104D2000FC20BB6A5A607B6AD3F80021BB6A9A6098
:104D30007B6AD3F82C21BB6ADA607B6A93F8E9209E
:104D4000BB6A83F829207B6AD3F83821BB6A1A61D1
:104D50007B6AD3F83421BB6A5A617B6A93F8E820F6
:104D6000BB6A83F828207B6AD3F8EC20BB6A9A617F
:104D70007B6AD3F8F020BB6ADA617B6AD3F8F4204F
:104D8000BB6A1A627B6AD3F8F820BB6A5A627B6AF4
:104D900093F8EA20BB6A83F82A207B6A93F8EB2019
:104DA000BB6A83F82B207B6AD3F83C21BB6ADA62AA
:104DB0007B6AD3F84021BB6A1A637B6AD3F824214B
:104DC000BB6A5A637B6AD3F85821BB6A9A637B6AD1
:104DD000D3F85C21BB6ADA637B6AB3F9A820BB6AAB
:104DE000A3F854207B6AB3F9AA20BB6AA3F8562023
:104DF0007B6AD3F8A020BB6ADA647B6AD3F8A4206C
:104E0000BB6A1A657B6AD3F89820BB6A5A647B6ACE
:104E1000D3F89C20BB6A9A647B6AD3F8B020BB6A43
:104E2000DA657B6AD3F8B420BB6A1A6602E07B6A53
:104E3000DB7D3B630321F86802F022FB00220021A6
:104E4000F8680CF021FFFB6A002B04D07B6AD3F8D2
:104E500068317B63D7E07B6AD3F8783123F0300385
:104E6000FB61FB69422B00F2CD8001A252F823F0D6
:104E7000A74F0000C54F0000E54F0000C54F0000E0
:104E8000C54F00007D4F0000E54F0000C54F0000FA
:104E9000C54F0000A74F0000A74F0000A74F00001C
:104EA000A74F0000A74F0000A74F0000A74F00002A
:104EB000055000000550000005500000055000009E
:104EC000055000000550000005500000055000008E
:104ED000055000000550000005500000055000007E
:104EE000055000000550000005500000055000006E
:104EF000055000000550000005500000055000005E
:104F0000055000000550000005500000055000004D
:104F1000055000000550000005500000055000003D
:104F2000055000000550000005500000055000002D
:104F3000055000000550000005500000055000001D
:104F4000055000000550000005500000055000000D
:104F500005500000055000000550000005500000FD
:104F600005500000055000000550000005500000ED
:104F7000E54F0000C54F0000C54F0000FB68D3F8A7
:104F8000803003F40013002B05D10921F868FFF7E6
:104F9000ECFD0346F6E13B6A554AC3F82C213B6A17
:104FA000012283F8E9207B6AD3F868217B88B7F86F
:104FB0006010786AD0F86C0100FB01F10B441344D7
:104FC0007B6320E07B6AD3F868217B88B7F86010A8
:104FD000786AD0F86C0100FB01F10B445B001344CC
:104FE0007B6310E07B6AD3F868217B88B7F8601098
:104FF000786AD0F86C0100FB01F10B449B0013446C
:105000007B6300E000BF7B6F03F00F031946F86875
:105010000CF096FDFB6A002B14D07B6AD3F86C1160
:105020007B6AD3F870017B6AD3F874317A6AD2F85C
:1050300078210192009303460A46796BF8680CF0D8
:10504000D1FA0DE07B6AD3F86C217B6AD3F8783112
:1050500001933B6C00937B6C796BF8680CF0C2FA9F
:105060007B6F03F02003002B10D07B6F03F08003D5
:10507000002B05D04FF07F43FB630023BB630BE0A5
:105080000023FB634FF07F43BB6305E04FF07F439A
:10509000FB634FF07F43BB637B6F03F01003002B78
:1050A00015D07B6F03F04003002B0AD07B6A9B680E
:1050B000FA6B1343FB637B6ADB68BA6B1343BB6316
:1050C0001CE07B6A9B68BA6B1343BB6316E07B6F83
:1050D00003F04003002B0DD07B6A9B68FA6B1343EF
:1050E000FB637B6ADB68BA6B1343BB6306E000BFFC
:1050F00010000400BB6B63F07F43BB633B6AFA6B39
:10510000C3F858213B6ABA6BC3F85C213B6A93F839
:105110000E3143F00503DAB23B6A83F80E214FF4F7
:1051200080337B654FF480333B650023FB640023B1
:10513000BB64BB681B01BB617B681B017B61B7F86B
:105140006430102B0CD9BB691B041A46B7F86430C5
:10515000B2FBF3F37B657B6DDA0F13445B10FB64EA
:10516000B7F96830102B0CDD7B691B041A46B7F8C1
:105170006830B2FBF3F33B653B6DDA0F13445B1011
:10518000BB647B6F03F40073002B07D07B6D5B4225
:105190007B65BB681A04FB6CD31AFB647B6F03F45A
:1051A0008063002B07D03B6D5B423B657B681A0434
:1051B000BB6CD31ABB647B6F03F00403002B03D0DA
:1051C000FB6CA3F50043FB647B6F03F00803002B2B
:1051D00003D0BB6CA3F50043BB64FB6A002B0AD071
:1051E0007B881B04FA6C1344FB64B7F860301B0423
:1051F000BA6C1344BB64B7F97020B7F96C103B6DFF
:10520000049300230393002302937B6D0193BB6CF3
:105210000093FB6CF8680CF0F0FCB7F97010B7F96C
:105220006C20B7F968300193B7F9643000930B46EE
:10523000396AF8680BF014FABB6A002B00F09D8005
:105240007B6F03F48073002B40F09780BB6A1A7861
:105250007B6ADA75BB6A9A787B6A83F80E21BB6A2F
:105260005A787B6A83F8D520BB6A5A687B6AC3F890
:10527000FC20BB6A9A687B6AC3F80021BB6ADA68C3
:105280007B6AC3F82C21BB6A93F829207B6A83F8D8
:10529000E920BB6A1A697B6AC3F83821BB6A5A697C
:1052A0007B6AC3F83421BB6A93F828207B6A83F8B1
:1052B000E820BB6A9A697B6AC3F8EC20BB6ADA69AA
:1052C0007B6AC3F8F020BB6A1A6A7B6AC3F8F420D1
:1052D000BB6A5A6A7B6AC3F8F820BB6A93F82A2033
:1052E0007B6A83F8EA20BB6A93F82B207B6A83F8F9
:1052F000EB20BB6ADA6A7B6AC3F83C21BB6A1A6B93
:105300007B6AC3F84021BB6A5A6B7B6AC3F82421CD
:10531000BB6A9A6B7B6AC3F85821BB6ADA6B7B6AFB
:10532000C3F85C21BB6AB3F954207B6AA3F8A820B8
:10533000BB6AB3F956207B6AA3F8AA20BB6ADA6C71
:105340007B6AC3F8A020BB6A1A6D7B6AC3F8A420ED
:10535000BB6A5A6C7B6AC3F89820BB6A9A6C7B6AFA
:10536000C3F89C20BB6ADA6D7B6AC3F8B020BB6AC5
:105370001A6E7B6AC3F8B42003E0396BF86802F058
:105380007FF8002318465837BD4680BD80B485B0ED
:1053900000AF786039607B681B690F4A1A607B68D0
:1053A0001B693A685A607B681B690433FB607B6841
:1053B0009B68FA68DA607B681B6903F108027B6806
:1053C0001A617B6800229A61FB6818461437BD4653
:1053D0005DF8047B704700BF3280808080B483B06A
:1053E00000AF786039603B685AB27B6883F8C621A9
:1053F0003B6818460C37BD465DF8047B704780B5A6
:1054000086B000AFF860B9607A6000237B61FB680A
:10541000002B01D1002351E0BB68022B02D97B682D
:10542000022B05D80D21F868FFF7D8FF002345E0CF
:1054300058200BF091FF38613B69002B1FD03B696E
:1054400000229A633B69BA681946F86803F0ABF822
:105450000346002B10D0FB68DB6F002B11D13B699A
:10546000383340221946F86800F043F90346002B10
:1054700007D101237B6104E001237B6101E001236B
:105480007B617B69002B0ED13B697A681A623B69AC
:1054900000225A623B6900225A650021F868FFF732
:1054A0009DFF3B690AE00121F868FFF797FF3B6920
:1054B000002B02D038690BF05BFF00231846183729
:1054C000BD4680BD80B582B000AF786039603B6872
:1054D0005B6A002B05D012217868FFF77FFF034637
:1054E0002DE07B681B693A689A4204D07B685B694F
:1054F0003A689A4205D113217868FFF76FFF034697
:105500001DE07B68DB683A689A4203D17B689A6841
:105510007B68DA603B68184603F02AF93B689B6BAE
:10552000002B04D03B689B6B18460BF021FF3868BA
:105530000BF01EFF00217868FFF750FF0346184666
:105540000837BD4680BD80B586B000AF7860396051
:10555000786803F021FD7B68DB6F002B17D07B6838
:10556000DB68FB603A68FB689A4210D07B68DB68B6
:105570005B6D002B0BD1F86803F056FA0021F86838
:10558000FFF704FF0022F968786803F006FB3B6828
:10559000002B02D17B689B683B603B6800225A6508
:1055A0007B683A68DA603B68BB607B6800225A63BC
:1055B000BB685B6A002B05D0BB6800225A62B868E2
:1055C00003F092FABB685B69002B05D0BB685B698E
:1055D0001B681B683B6114E07B68D3F8843003F0E0
:1055E0001203002B09D0BB685B681B69002B04D039
:1055F000BB685B681B693B6103E0BB685B685B6819
:105600003B61B968786803F042FF3A69B968786825
:1056100003F061FF7B689B6E03F02003002B0FD12A
:1056200000237B6109E07A687B69134403F5BC734E
:1056300000221A707B6901337B617B693A2BF2DDB2
:1056400000217868FFF7CAFE034618461837BD46A2
:1056500080BD80B588B000AFF860B9607A60002383
:10566000FB61FB68DB68BB61FB68BA68DA60BB683A
:105670005B6A002B05D01221F868FFF7AFFE0346E6
:1056800033E0BB687B617B6901225A62BB685B6D5A
:10569000002B0FD1FB685B6E082B03D10121F8684A
:1056A00001F0D1FBF86800F027F901227969F86868
:1056B00003F073FABB6801225A6500227969F86821
:1056C0000BF079FA7B6900225A62FB68BA69DA60EA
:1056D000FB6893F9C731FB61FB68002283F8C7219F
:1056E000F969F868FFF77AFE034618462037BD4689
:1056F00080BD80B584B000AFF860B9607A607B6827
:10570000DB0018460BF028FE0246BB681A60BB6837
:105710001B68002B01D1002306E0BB687A689A6001
:10572000BB687A685A60012318461037BD4680BDB1
:1057300080B586B000AF786039603B685B685B001D
:105740007B617B69D8003B681B68012219460BF01E
:105750001AFE38613B69002B01D1002311E03B6840
:105760005B687A69D31AFB603B689A68FB681A44E5
:105770003B689A603B687A695A603B683A691A608C
:10578000FB6818461837BD4680BD80B584B000AFB1
:1057900078607B68FB60FB68DB6838331946F86823
:1057A000FFF7C6FFB860BB68002B10D1786800F027
:1057B000A3F8FB68DB681B6C1A46FB68C3F8BC21C6
:1057C000FB68D3F8B421FB68C3F8B8211BE0FB6881
:1057D000D3F8BC21BB681A44FB68C3F8BC21FB6842
:1057E000DB689B6BFA68D2F8B811FA68D2F8B4217A
:1057F0008A1A1A44FB68C3F8B821FB68DB689A6B05
:10580000FB68C3F8B4211037BD4680BD80B485B0B5
:1058100000AF78607B68FB60FB68DB6F002B33D1E7
:10582000FB68DB683833BB60FB68D3F8B421BB6826
:10583000DA60FB68D3F8B821BB681A61FB68D3F85B
:10584000BC21BB685A61FB68D3F8C021BB689A6170
:10585000BB681A68FB68C3F8B421BB681A68BB68E8
:105860005968BB689B68CB1ADB001A44FB68C3F815
:10587000B821BB689B681A46FB68C3F8BC21FB686B
:10588000044AC3F8C02100E000BF1437BD465DF8EC
:10589000047B70478B57000080B485B000AF786000
:1058A0007B68FB60FB68DB6F002B1ED1FB68DB684D
:1058B0003833BB60FB68D3F8BC311A46BB689A60CA
:1058C000BB68DA68FB68C3F8B421BB681A69FB6877
:1058D000C3F8B821BB685A69FB68C3F8BC21BB6830
:1058E0009A69FB68C3F8C02100E000BF1437BD46C9
:1058F0005DF8047B7047FFFF80B586B000AF78602D
:105900007B687B617B69DB6F002B33D17B69DB6854
:1059100038333B613B699A683B695B689A422BD09C
:105920007B69D3F8C031164A93420CBF0123002390
:10593000DBB2FB60FB68002B02D07868FFF7ACFF9E
:10594000786803F029FB7868FFF760FF786803F058
:1059500023FB3B695B681A467B69C3F8BC21FB6883
:10596000002B02D17868FFF797FF3B695A683B69C3
:105970009A6002E000BF00E000BF1837BD4680BD5E
:105980008B57000080B483B000AFEFF303837B60DC
:105990007B683B603B88C3F308039BB2DBB2103BE0
:1059A000DBB25BB218460C37BD465DF8047B70472E
:1059B00080B483B000AF03463960FB7197F90730BC
:1059C00004493A6841F8232000BF0C37BD465DF812
:1059D000047B7047FC12022080B483B000AF034602
:1059E000FB71084997F9073003F1C00251F82230E2
:1059F0006FF3104341F8223000BF0C37BD465DF80D
:105A0000047B70470060004080B584B000AF03465F
:105A1000FB7197F907301846FFF7DEFF97F907305B
:105A2000FB60FB6803F01F02064997F907305B092A
:105A3000012000FA02F2603341F8232000BF103742
:105A4000BD4680BD00E100E080B584B000AF0346F4
:105A5000B9607A60FB73BB68DAB2094997F90F3015
:105A60001201D2B20B4483F8002397F90F30796802
:105A70001846FFF79DFF00BF1037BD4680BD00BF31
:105A800000E100E080B485B000AF0346FB7197F9F8
:105A90000730FB60FB6803F01F02074997F90730E6
:105AA0005B09012000FA02F241F8232000BF1437FD
:105AB000BD465DF8047B704700E100E080B582B030
:105AC00000AF0346FB7197F907301846FFF79CFFBC
:105AD00097F907301846FFF7D5FF00BF0837BD46D6
:105AE00080BDFFFF80B485B000AF0346FB7197F91E
:105AF0000730FB60FB6803F01F020B4997F9073082
:105B00005B09012000FA02F2203341F82320BFF3A1
:105B10004F8F00BFBFF36F8F00BF00BF1437BD466C
:105B20005DF8047B704700BF00E100E080B483B003
:105B300000AF0346FB7197F90730044A52F823304F
:105B400018460C37BD465DF8047B7047FC120220F6
:105B500080B58AB000AF786039607B687B623B6853
:105B60001B7803F1007303F560535B011A467B6AEF
:105B70001A627B6A00221A707B6A3A68DA613B68B3
:105B80005A697B6A5A623B689A697B6ADA627B6A05
:105B900000229A627A6A9378012161F3010393707B
:105BA0003B685B78002B05D17A6A9378022161F318
:105BB000010393703968786A00F044F900233B626E
:105BC000EFF31083FB60FB683B6201233B613B69A1
:105BD00083F3108800BF474B5A683B681B7819460F
:105BE0004FF00043CB40DB43424913404B60414BF5
:105BF0005B683B6A7B617B6983F3108800BF7B6ACB
:105C00001B6A00229A707B6A1B6A00221A717B6AE7
:105C10001B6A00225A727B6A1B6A00229A727B6A94
:105C20001B6A0022DA727B6A1B6A00225A833B6875
:105C30001B781A4640F2FF33D34003F00103002BD8
:105C400003D07B6A1B6A4022DA747B6A1B6A0622D5
:105C50001A773968786A00F051F87B6A0022DA60B6
:105C60007B6A00221A617B6A00225A617B6A0022E9
:105C70009A613B68DB69FB61FB691B7803F00303F6
:105C8000BB61BB6943F01003BB617B6ADB6993F9BD
:105C900005301846FFF712FF7B6ADB6993F90B307A
:105CA0001846FFF70BFFBB6943F04003BB617B6AFB
:105CB000DB6993F907301846FFF700FF7B6ADB6961
:105CC00093F909301846FFF7F9FEBB6943F020034A
:105CD000BB617B6A1B6ABA69D2B29A70FB695A8946
:105CE0007B6A1A817B6A044A5A6000231846283767
:105CF000BD4680BDFC6F04405549435380B586B016
:105D000000AF786039603B681B781A4640F2FF3379
:105D1000D34003F00103002B04D07B681B6A4FF4CF
:105D200078429A823B689B781A013B68DB78DB00FB
:105D300013437B61F2233B613B685B78032B04D107
:105D40007B6943F040037B6107E03B685B78002B95
:105D500003D13B6923F010033B617B681B6A7A69BE
:105D6000D2B21A707B681B6A3A69D2B29A713B68E8
:105D7000DB69BB60BB681B7B5B00DAB27B681B6ABC
:105D800002F00202D2B25A730023FB60BB685B7858
:105D9000DB01DBB2FA681343FB60BB689B785B01F5
:105DA00003F02003FA681343FB607B681B6A002240
:105DB0001A72BB681B78022B03D0BB681B78032BBD
:105DC00011D17B681B6AFF225A70BB681B78022BBB
:105DD00003D1FB6843F01003FB607B681B6AFA6821
:105DE000D2B2DA710DE07B681B6AFA68D2B2DA715E
:105DF0007B681A6ABB685B681946104600F04FF86A
